:100000000C9446000C9465000C9465000C946500FB
:100010000C9465000C9465000C9465000C946500CC
:100020000C9465000C9465000C9465000C946500BC
:100030000C9465000C9465000C9465000C946500AC
:100040000C9465000C9465000C9465000C9465009C
:100050000C946D010C9465000C9465000C94650083
:100060000C9465000C9465000C9465000C9465007C
:100070000C9465000C9465000C9465000C9465006C
:100080000C9465000C9465000C94650011241FBE4F
:10009000CFEFD0E4DEBFCDBF14E0A0E0B1E0E4EEEE
:1000A000FAE100E00BBF02C007900D92AE33B1073A
:1000B000D9F724E0AEE3B4E001C01D92A038B20746
:1000C000E1F70E94BC000C94700D0C9400000F939B
:1000D0001F93CF93DF93CDB7DEB72B970FB6F8946E
:1000E000DEBF0FBECDBF19828981883080F489813F
:1000F000082F10E00E945402282FCE010496800F92
:10010000911FFC01208389818F5F8983EDCF81E07E
:100110008A831B828B81883018F5209100013091F1
:1001200001018B81882F90E0820F931FFC01808159
:10013000282F880F330B8B81882F90E0AE014C5F06
:100140005F4F840F951FFC018081882F90E0281756
:10015000390711F01A8204C08B818F5F8B83DACF4D
:100160008A812B960FB6F894DEBF0FBECDBFDF910C
:10017000CF911F910F910895CF93DF93CDB7DEB745
:10018000C651D1400FB6F894DEBF0FBECDBF81E29D
:1001900090E021E0FC01208382E290E0FC011082EB
:1001A00068E679E889E090E00E945D02789482E256
:1001B00090E022E230E0F90120812E7FFC012083D3
:1001C0000E9454028A8382E290E022E230E0F90148
:1001D00020812160FC0120838A81882F90E081307A
:1001E000910531F08130910514F3049704F70EC0A6
:1001F0000E9467008B838B81813021F481E00E9413
:1002000001026AC082E00E94010266C00E9467008B
:100210008C838C81882309F45BC081E00E940102F9
:100220000E94540287708D838D81882F90E0855EB7
:100230009D4FFC01908181E08927882309F444C007
:1002400081E00E9401028D81882F90E0880F991F24
:100250008E5F9E4FFC0120813181CE01479643E2A3
:1002600052E0B9010E94DD040E9454028E8319827B
:1002700099818E81981778F5CE01079660E10E94EA
:1002800004038A81823061F4BE01695F7F4FCE0131
:10029000479620E130E040E050E00E94E10B0BC0C7
:1002A000BE01695F7F4FCE01479620E130E040E01C
:1002B00050E00E943B0CCE01079660E10E94C00214
:1002C00089818F5F8983D4CF83E00E94010203C0BC
:1002D00082E00E94010200006ACF1F920F920090FC
:1002E0005F000F92112400905B000F922F933F93B9
:1002F0004F935F936F937F938F939F93AF93BF932E
:10030000EF93FF93CF93DF93CDB7DEB786EC90E00A
:10031000FC0180810E94A4010000DF91CF91FF9138
:10032000EF91BF91AF919F918F917F916F915F916D
:100330004F913F912F910F9000925B000F90009290
:100340005F000F901F901895CF93DF9300D0CDB72B
:10035000DEB78A8380917E04882F90E001968F73A8
:100360009078992324F40197806C9F6F019689837C
:1003700090917F0481E02981291709F080E088238A
:1003800069F480917E04882F90E0825C9B4F2A81E3
:10039000FC012083898180937E0401C000000F90BE
:1003A0000F90DF91CF910895CF93DF931F92CDB738
:1003B000DEB720917F0490917E0481E0291709F037
:1003C00080E0882309F0F5CF80917F04882F90E0AA
:1003D000825C9B4FFC018081898380917F04882F00
:1003E00090E001968F739078992324F40197806CA4
:1003F0009F6F019680937F0489810F90DF91CF9149
:100400000895CF93DF931F92CDB7DEB7898380EC39
:1004100090E0FC018081882F90E08072992721E094
:10042000892B09F020E0222309F0F1CF80EC90E045
:1004300020EC30E0F90120812064FC01208386EC6F
:1004400090E02981FC01208300000F90DF91CF9183
:100450000895CF93DF9300D000D01F92CDB7DEB7C1
:100460006A837B838C839D8319828981843098F48D
:100470008A810E9401028A819B81AC81BD81892F82
:100480009A2FAB2FBB278A839B83AC83BD83898143
:100490008F5F8983EACF00000F900F900F900F902D
:1004A0000F90DF91CF910895CF93DF93CDB7DEB753
:1004B0000E94D401DF91CF910895CF93DF93CDB700
:1004C000DEB728970FB6F894DEBF0FBECDBF6D83A1
:1004D0007E838F8398878AE290E02AE230E0F901F8
:1004E00020812260FC0120838D819E81AF81B885AF
:1004F000880F991FAA1FBB1F880F991FAA1FBB1F18
:10050000880F991FAA1FBB1F9C01AD0180E896E9C7
:10051000A8E9B0E0BC01CD010E94450DDA01C90196
:100520000197A109B10989839A83AB83BC8325EC28
:1005300030E089819A81AB81BC81892F9A2FAB2FC2
:10054000BB27F901808384EC90E02981FC012083A2
:1005500080EC90E022E0FC01208381EC90E028E92F
:10056000FC01208310927E0410927F0400002896E4
:100570000FB6F894DEBF0FBECDBFDF91CF910895C7
:10058000CF93DF9300D000D0CDB7DEB79B838A83B3
:100590006C83198299818C81981778F48981882FCE
:1005A00090E02A813B81820F931FFC0180810E9491
:1005B000010289818F5F8983EDCF00000F900F903A
:1005C0000F900F90DF91CF910895CF93DF9300D0DC
:1005D000CDB7DEB79A83898389819A81FC018081B6
:1005E000882361F089819A819C012F5F3F4F3A8374
:1005F0002983FC0180810E940102EECF00000F9050
:100600000F90DF91CF9108950F931F93CF93DF93B6
:1006100000D000D0CDB7DEB79B838A836C8319826C
:1006200099818C81981780F48981882F90E02A81A4
:100630003B818901080F191F0E945402F801808331
:1006400089818F5F8983ECCF00000F900F900F900E
:100650000F90DF91CF911F910F910895CF93DF936A
:10066000CDB7DEB72F970FB6F894DEBF0FBECDBF64
:100670009D878C877F876E871A8219826EC08981D9
:100680009A81880F991F880F991F2C853D85820FAD
:10069000931F29813A81220F331F220F331F4E856A
:1006A0005F85240F351FF9012081FC01208389819A
:1006B0009A81880F991F880F991F01962C853D8577
:1006C000820F931F29813A81220F331F220F331F7C
:1006D0002F5F3F4F4E855F85240F351FF901208125
:1006E000FC01208389819A81880F991F880F991FA7
:1006F00002962C853D85820F931F29813A81220F16
:10070000331F220F331F2E5F3F4F4E855F85240F0F
:10071000351FF9012081FC01208389819A81880F8E
:10072000991F880F991F03962C853D85820F931F73
:1007300029813A81220F331F220F331F2D5F3F4F34
:100740004E855F85240F351FF9012081FC01208330
:1007500089819A8101969A83898389819A810897F0
:1007600008F48DCF88E090E09A838983FEC0898168
:100770009A818150904C880F991F880F991F9C83F4
:100780008B832C853D858B819C81820F931FFC017F
:10079000808188878B819C8101962C853D85820F85
:1007A000931FFC01808189878B819C8102962C8517
:1007B0003D85820F931FFC0180818A878B819C81FC
:1007C00003962C853D85820F931FFC0180818B87CA
:1007D00089819A8187709927892BC9F588858D83AE
:1007E000898588878A8589878B858A878D818B878C
:1007F0008885882F90E08D5C9D4FFC0180818887E3
:100800008985882F90E08D5C9D4FFC0180818987D0
:100810008A85882F90E08D5C9D4FFC0180818A87BE
:100820008B85882F90E08D5C9D4FFC0180818B87AC
:10083000288589819A81969587959695879596952D
:1008400087958D5C9B4FFC018081822788878981F9
:100850009A8187709927049701F58885882F90E001
:100860008D5C9D4FFC01808188878985882F90E071
:100870008D5C9D4FFC01808189878A85882F90E05F
:100880008D5C9D4FFC0180818A878B85882F90E04D
:100890008D5C9D4FFC0180818B8789819A81880FB7
:1008A000991F880F991F9F838E8389819A81885011
:1008B000904C880F991F880F991F9C838B832C85E0
:1008C0003D858E819F81820F931F4C855D852B8195
:1008D0003C81240F351FF901308128852327FC0135
:1008E00020838E819F8101962C853D85820F931FE9
:1008F0002B813C812F5F3F4F4C855D85240F351F39
:10090000F901308129852327FC0120838E819F8175
:1009100002962C853D85820F931F2B813C812E5F93
:100920003F4F4C855D85240F351FF90130812A85A5
:100930002327FC0120838E819F8103962C853D8592
:10094000820F931F2B813C812D5F3F4F4C855D852E
:10095000240F351FF90130812B852327FC012083CB
:1009600089819A8101969A83898389819A81CC971A
:1009700008F4FDCE00002F960FB6F894DEBF0FBE30
:10098000CDBFDF91CF910895CF93DF9300D000D0FA
:10099000CDB7DEB79A8389837C836B8389819A8103
:1009A0002B813C81B9010E942E0300000F900F9013
:1009B0000F900F90DF91CF910895CF93DF9300D0E8
:1009C00000D000D0CDB7DEB79A8389837C836B8358
:1009D0005E834D8389819A812B813C81B9010E947C
:1009E0002E0389819A8180519F4F2D813E8140E164
:1009F00050E0B9010E94670D000026960FB6F894EA
:100A0000DEBF0FBECDBFDF91CF910895CF93DF93AF
:100A100000D000D0CDB7DEB79A8389837C836B8307
:100A200089819A8180519F4F2B813C8140E150E028
:100A3000B9010E94670D00000F900F900F900F906A
:100A4000DF91CF910895CF93DF93CDB7DEB727978E
:100A50000FB6F894DEBF0FBECDBF8B837D836C8352
:100A60005F834E83198250C01A8247C08981282F24
:100A700030E08A81882F90E04981642F70E04A81BC
:100A8000442F50E0EC81FD81660F771F660F771FC2
:100A90006E0F7F1F460F571FDA01EC914B81442FD9
:100AA00050E0BA01660F771F660F771F4981442F08
:100AB00050E0460F571FBA01660F771F660F771F6A
:100AC0004A81442F50E0460F571FBA014E815F8183
:100AD000460F571FDA014C916E2F64274C815D81C0
:100AE000220F331F220F331F240F351F820F931F36
:100AF000FC0160838A818F5F8A838A81843008F455
:100B0000B5CF89818F5F89838981843008F4ACCF28
:100B1000000027960FB6F894DEBF0FBECDBFDF9161
:100B2000CF910895CF93DF9300D000D0CDB7DEB73B
:100B30009C838B83198235C01A822DC08A81282F0D
:100B400030E08981882F90E04A81642F70E04981EC
:100B5000442F50E0EB81FC81660F771F660F771FF3
:100B60006E0F7F1F460F571FFA014081442F50E040
:100B70004D5C5D4FFA0160814B815C81220F331F18
:100B8000220F331F240F351F820F931FFC01608338
:100B90008A818F5F8A838A81843080F289818F5F26
:100BA00089838981843040F200000F900F900F906C
:100BB0000F90DF91CF910895CF93DF9300D01F92D4
:100BC000CDB7DEB79B838A838A819B81FC018181BB
:100BD00089838A819B81FC0125818A819B81FC011B
:100BE00021838A819B81FC0121858A819B81FC0173
:100BF00025838A819B81FC0125858A819B81FC015B
:100C000021878A819B812981FC0125878A819B819B
:100C1000FC01828189838A819B81FC0122858A81F2
:100C20009B81FC0122838A819B812981FC0122878F
:100C30008A819B81FC01868189838A819B81FC0159
:100C400026858A819B81FC0126838A819B8129815B
:100C5000FC0126878A819B81FC01838189838A81AB
:100C60009B81FC0127858A819B81FC0123838A81EA
:100C70009B81FC0123858A819B81FC0127878A81D6
:100C80009B81FC0127818A819B81FC0123878A81CA
:100C90009B812981FC01278300000F900F900F900A
:100CA000DF91CF910895CF93DF931F92CDB7DEB739
:100CB00089838981882F90E0880F991F282F898147
:100CC000982F991F9927991F8BE1989F802D1124A8
:100CD00082270F90DF91CF910895CF93DF9300D0BB
:100CE00000D000D0CDB7DEB79E838D8319824BC173
:100CF0008981882F90E02D813E81880F991F880F70
:100D0000991F820F931FFC0180818A838981882F1C
:100D100090E02D813E81880F991F880F991F820FC7
:100D2000931FFC0140818981882F90E02D813E81B5
:100D3000880F991F880F991F820F931F0196FC013E
:100D4000808148278981882F90E02D813E81880FFE
:100D5000991F880F991F820F931F0296FC018081B3
:100D600048278981882F90E02D813E81880F991F27
:100D7000880F991F820F931F0396FC01808184279F
:100D80008B838981882F90E02D813E81880F991F68
:100D9000880F991F820F931FFC0140818981882F42
:100DA00090E02D813E81880F991F880F991F820F37
:100DB000931F0196FC01808184278C838C810E9483
:100DC00053068C838981882F90E02981222F30E07F
:100DD0004D815E81220F331F220F331F240F351FD9
:100DE000F90130814C812B812427432F42272D810B
:100DF0003E81880F991F880F991F820F931FFC0156
:100E000040838981882F90E02D813E81880F991F32
:100E1000880F991F820F931F0196FC0140818981E1
:100E2000882F90E02D813E81880F991F880F991F90
:100E3000820F931F0296FC01808184278C838C8112
:100E40000E9453068C838981882F90E02981222F6C
:100E500030E04D815E81220F331F220F331F240F9C
:100E6000351F2F5F3F4FF90130814C812B812427A3
:100E7000432F42272D813E81880F991F880F991F8C
:100E8000820F931F0196FC0140838981882F90E097
:100E90002D813E81880F991F880F991F820F931F04
:100EA0000296FC0140818981882F90E02D813E814E
:100EB000880F991F880F991F820F931F0396FC01BB
:100EC000808184278C838C810E9453068C83898146
:100ED000882F90E02981222F30E04D815E81220F02
:100EE000331F220F331F240F351F2E5F3F4FF90191
:100EF00030814C812B812427432F42272D813E8135
:100F0000880F991F880F991F820F931F0296FC016B
:100F100040838981882F90E02D813E81880F991F21
:100F2000880F991F820F931F0396FC0190818A817D
:100F300089278C838C810E9453068C838981882F1A
:100F400090E02981222F30E04D815E81220F331FF6
:100F5000220F331F240F351F2D5F3F4FF9013081C2
:100F60004C812B812427432F42272D813E81880FDE
:100F7000991F880F991F820F931F0396FC014083CE
:100F800089818F5F89838981843008F4B1CE000024
:100F900026960FB6F894DEBF0FBECDBFDF91CF917E
:100FA00008950F931F93CF93DF93CDB7DEB72897A4
:100FB0000FB6F894DEBF0FBECDBF98878F831A821D
:100FC000198240C22F81388589819A81880F991FA3
:100FD000880F991F820F931FFC0180818B832F81C3
:100FE000388589819A81880F991F880F991F820FF0
:100FF000931F0196FC0180818C832F813885898124
:101000009A81880F991F880F991F820F931F02964C
:10101000FC0180818D832F81388589819A81880F99
:10102000991F880F991F820F931F0396FC018081DF
:101030008E838B810E9453060E9453060E945306A2
:101040000E9453068C810E9453060E9453068C8195
:101050000E9453060E9453060E9453060E945306A4
:101060008D810E9453068D810E9453060E94530673
:101070000E9453060E9453068E810E9453068E8161
:101080000E9453060E9453068E810E9453060E94BE
:1010900053060E9453060E9453068B810E945306FA
:1010A000182F8B810E9453060E94530618278B81AC
:1010B0000E9453060E9453060E94530618278C81F3
:1010C0000E945306982F8C81092F08278C810E943B
:1010D00053060E9453060E945306802718278D81CD
:1010E0000E9453060E945306982F8D81092F0827CE
:1010F0008D810E9453060E9453060E94530680274A
:1011000018278E810E9453060E9453060E945306A0
:10111000982F8E818927412F48272F8138858981F3
:101120009A81880F991F880F991F820F931FFC01C6
:1011300040838B810E9453068B810E9453060E943C
:1011400053068B810E9453060E9453060E94530649
:101150000E9453068C810E9453060E9453060E94EF
:1011600053060E9453068D810E9453060E94530627
:101170008D810E9453060E9453060E9453060E94CE
:1011800053068E810E9453068E810E9453060E9450
:1011900053060E9453060E9453068B810E945306F9
:1011A0000E9453060E945306982F8B81192F1827EF
:1011B0008C810E945306082F8C810E9453060E9446
:1011C000530608278C810E9453060E9453060E94F2
:1011D0005306802718278D810E945306982F8D81F2
:1011E000092F08278D810E9453060E9453060E94F2
:1011F0005306802718278E810E9453060E945306AB
:10120000982F8E81092F08278E810E9453060E94F5
:1012100053060E9453068027412F48272F81388587
:1012200089819A81880F991F880F991F820F931FB8
:101230000196FC0140838B810E9453068B810E94A2
:1012400053060E9453060E9453060E9453068C8147
:101250000E9453068C810E9453060E9453068C8183
:101260000E9453060E9453060E9453060E94530692
:101270008D810E9453060E9453060E9453060E94CD
:1012800053068E810E9453060E9453068E810E944F
:1012900053060E9453060E9453060E9453068B81F8
:1012A0000E9453060E945306982F8B81192F1827EE
:1012B0008B810E9453060E9453060E9453061827F2
:1012C0008C810E9453060E9453060E945306982F59
:1012D0008C81892718278D810E945306082F8D81C4
:1012E0000E9453060E94530608278D810E945306D0
:1012F0000E9453060E945306802718278E810E9461
:101300005306982F8E81092F08278E810E9453063D
:101310000E9453060E9453068027412F48272F81A1
:10132000388589819A81880F991F880F991F820FAC
:10133000931F0296FC0140838B810E9453060E94FA
:1013400053068B810E9453060E9453060E94530647
:101350000E9453068C810E9453068C810E94530682
:101360000E9453060E9453060E9453068D810E94DC
:1013700053068D810E9453060E9453068D810E9460
:1013800053060E9453060E9453060E9453068E8104
:101390000E9453060E9453060E9453060E94530661
:1013A0008B810E945306982F8B81192F18278B81D0
:1013B0000E9453060E9453060E94530618278C81F0
:1013C0000E9453060E945306982F8C81092F0827EC
:1013D0008C810E9453060E9453060E945306802768
:1013E00018278D810E9453060E9453060E945306BF
:1013F000982F8D81892718278E810E945306082FE8
:101400008E810E9453060E94530608278E810E94F7
:1014100053060E9453060E9453068027412F4827F7
:101420002F81388589819A81880F991F880F991F8C
:10143000820F931F0396FC01408389819A81019654
:101440009A83898389819A8104970CF4BBCD00002B
:1014500028960FB6F894DEBF0FBECDBFDF91CF91B7
:101460001F910F910895CF93DF9300D000D0CDB797
:10147000DEB79C838B83198235C01A822DC08A8186
:10148000282F30E08981882F90E04A81642F70E016
:101490004981442F50E0EB81FC81660F771F660F76
:1014A000771F6E0F7F1F460F571FFA014081442F91
:1014B00050E04D5C5C4FFA0160814B815C81220FF2
:1014C000331F220F331F240F351F820F931FFC0180
:1014D00060838A818F5F8A838A81843080F28981E8
:1014E0008F5F89838981843040F200000F900F90D4
:1014F0000F900F90DF91CF910895CF93DF9300D09D
:101500001F92CDB7DEB79B838A838A819B81FC01C2
:10151000858589838A819B81FC0121858A819B81C4
:10152000FC0125878A819B81FC0125818A819B8121
:10153000FC0121878A819B81FC0121818A819B8119
:10154000FC0125838A819B812981FC0121838A8179
:101550009B81FC01828189838A819B81FC01228598
:101560008A819B81FC0122838A819B812981FC01E4
:1015700022878A819B81FC01868189838A819B8164
:10158000FC0126858A819B81FC0126838A819B81BF
:101590002981FC0126878A819B81FC0183818983C3
:1015A0008A819B81FC0127818A819B81FC012383A5
:1015B0008A819B81FC0123858A819B81FC01278391
:1015C0008A819B81FC0127858A819B81FC0123877D
:1015D0008A819B812981FC01278700000F900F9051
:1015E0000F90DF91CF910895CF93DF9300D000D07B
:1015F0001F92CDB7DEB79B838A837D836C8319826C
:101600002C813D818A819B81A901BC0180E00E94DF
:10161000230581E089838A819B810E9492058A81CA
:101620009B810E94DC0589818E3089F08A819B81B3
:101630000E946D062C813D818A819B81A901BC019C
:1016400089810E94230589818F5F8983E4CF00000F
:101650002C813D818A819B81A901BC018EE00E9481
:10166000230500000F900F900F900F900F90DF91C7
:10167000CF910895CF93DF9300D000D01F92CDB7C4
:10168000DEB79B838A837D836C8319822C813D81A5
:101690008A819B81A901BC018EE00E9423058DE017
:1016A00089838A819B810E947D0A8A819B810E9415
:1016B000330A2C813D818A819B81A901BC018981EA
:1016C0000E9423058981882341F08A819B810E94A1
:1016D000D107898181508983E4CF000000000F90F9
:1016E0000F900F900F900F90DF91CF910895CF93AF
:1016F000DF9300D000D0CDB7DEB79A8389837C8397
:101700006B8329813A818B819C81B9010E94F40A03
:1017100000000F900F900F900F90DF91CF910895E0
:10172000CF93DF9300D000D0CDB7DEB79A83898303
:101730007C836B8329813A818B819C81B9010E94D2
:101740003A0B00000F900F900F900F90DF91CF9108
:101750000895CF93DF9300D000D01F92CDB7DEB7AE
:101760009B838A837D836C8319821FC08981882F24
:1017700090E02A813B81820F931F2981222F30E044
:101780004A815B81240F351FF90160812981222F55
:1017900030E04C815D81240F351FF901208126271F
:1017A000FC01208389818F5F898389818031F0F2F8
:1017B00000000F900F900F900F900F90DF91CF913E
:1017C0000895CF93DF93CDB7DEB72C970FB6F8947B
:1017D000DEBF0FBECDBF9E838D8378876F83298741
:1017E0003A874B875C878D819E8180519F4F9C8378
:1017F0008B831A8219821CC02B813C818F81988532
:10180000B9010E94A90B2D813E818F819885B90174
:101810000E94F40A8F8198859C838B838F819885A1
:10182000409698878F8389819A8140969A8389838D
:1018300089819A819C0140E050E089859A85AB8539
:10184000BC85281739074A075B07B0F28D819E8156
:1018500080519F4F2B813C8140E150E0B9010E94B3
:10186000670D00002C960FB6F894DEBF0FBECDBFFB
:10187000DF91CF910895CF93DF93CDB7DEB76A970D
:101880000FB6F894DEBF0FBECDBF9C8B8B8B7E8BCB
:101890006D8B2F8B388F498F5A8F1A82198231C0E6
:1018A0008D899E8920E1FC01DE01139601900D9245
:1018B0002A95E1F72B893C898D899E89B9010E947F
:1018C0003A0B8B899C899C0120513F4F8D899E89C1
:1018D000B9010E94A90B8B899C8980519F4F20E1FF
:1018E000FE013396DC0101900D922A95E1F78D8976
:1018F0009E8940969E8B8D8B89819A8140969A8392
:10190000898389819A819C0140E050E08F89988D7C
:10191000A98DBA8D281739074A075B0708F200001E
:101920006A960FB6F894DEBF0FBECDBFDF91CF91A0
:101930000895CF93DF93CDB7DEB76C970FB6F894C9
:10194000DEBF0FBECDBF9E8B8D8B788F6F8B298FA7
:101950003A8F4B8F5C8F1A82198280E190E09C83D2
:101960008B837AC08B819C81409709F051C08D890F
:101970009E8980519F4F20E1FC01DE011596019068
:101980000D922A95E1F72D893E89CE010596B90180
:101990000E94F40A8FE090E09C838B8333C02D89F2
:1019A0003E898B819C81820F931F80519F4FFC0148
:1019B00080818F3F81F42D893E898B819C81820FAC
:1019C000931F80519F4FFC0110828B819C81019756
:1019D0009C838B8317C02D893E898B819C81820FCC
:1019E000931F80519F4FFC01808141E0480F2D895A
:1019F0003E898B819C81820F931F80519F4FFC01F8
:101A0000408304C08B819C8199234CF61C821B82ED
:101A10002F89388D89819A81820F931F4F89588D24
:101A200029813A81240F351FF9016081AE014B5F96
:101A30005F4F2B813C81240F351FF9012081262720
:101A4000FC01208389819A8101969A8389838B8105
:101A50009C8101969C838B8389819A819C0140E0C3
:101A600050E0898D9A8DAB8DBC8D281739074A07B8
:101A70005B0708F477CF00006C960FB6F894DEBFD2
:101A80000FBECDBFDF91CF910895A1E21A2EAA1B00
:101A9000BB1BFD010DC0AA1FBB1FEE1FFF1FA2171E
:101AA000B307E407F50720F0A21BB30BE40BF50B1B
:101AB000661F771F881F991F1A9469F760957095A4
:101AC000809590959B01AC01BD01CF010895FB016C
:101AD000DC0102C001900D9241505040D8F70895AA
:041AE000F894FFCFA8
:101AE400120212013201520172019201B201D201B9
:101AF400F201E203977443666DB790F9BA8C2377C9
:101B0400F4531A6EC8F680F2ACA9BBAA1227BC75AE
:101B140095A61E3C5D82ED9EDD5559F57EE13708A4
:101B240002CA461D57783D61FC71EB7A58967AB427
:101B34009F5136229B179F0A177C4371EEEE0DB01E
:101B4400805921D7D38574737FADE21CCB259AC409
:101B5400126CADCE3670E4F71BF328DF2857351E20
:101B64005FCE3F392B8EFD272303301184FE8CCFAB
:101B74000AE0AB8B4A1B4BC55490D162C41467FF77
:101B840013A534427D61CE6946F10666F5B2EB5E7B
:101B9400C7F91DD248A6F93FB5D23D234E28E3200C
:101BA400CDB19F23CCFC9D2E04DCB702A856084E71
:101BB4009383871ED65584416E821342FAA950C47A
:101BC400D99965B5E303DD9E55D86800FD72D575D6
:101BD4002C96C698959FF4D6370C594DC9EE373ECE
:101BE400C0EB8C9DDF860F6AEBFA357BCAC7A8E58C
:101BF400E88A3133333732303230000000010000DC
:101C040000000000000000000000000000000000D0
:101C1400000000637C777BF26B6FC53001672BFE9D
:101C2400D7AB76CA82C97DFA5947F0ADD4A2AF9C2E
:101C3400A472C0B7FD9326363FF7CC34A5E5F17105
:101C4400D8311504C723C31896059A071280E2EB0E
:101C540027B27509832C1A1B6E5AA0523BD6B3299E
:101C6400E32F8453D100ED20FCB15B6ACBBE394A2B
:101C74004C58CFD0EFAAFB434D338545F9027F5032
:101C84003C9FA851A3408F929D38F5BCB6DA211031
:101C9400FFF3D2CD0C13EC5F974417C4A77E3D64C9
:101CA4005D197360814FDC222A908846EEB814DEF9
:101CB4005E0BDBE0323A0A4906245CC2D3AC629183
:101CC40095E479E7C8376D8DD54EA96C56F4EA656D
:101CD4007AAE08BA78252E1CA6B4C6E8DD741F4B6C
:101CE400BD8B8A703EB5664803F60E613557B986DA
:101CF400C11D9EE1F8981169D98E949B1E87E9CE87
:101D04005528DF8CA1890DBFE6426841992D0FB09B
:101D140054BB1652096AD53036A538BF40A39E81FC
:101D2400F3D7FB7CE339829B2FFF87348E4344C473
:101D3400DEE9CB547B9432A6C2233DEE4C950B4294
:101D4400FAC34E082EA16628D924B2765BA2496D47
:101D54008BD12572F8F66486689816D4A45CCC5DA1
:101D640065B6926C704850FDEDB9DA5E154657A71A
:101D74008D9D8490D8AB008CBCD30AF7E45805B889
:101D8400B34506D02C1E8FCA3F0F02C1AFBD03015D
:101D9400138A6B3A9111414F67DCEA97F2CFCEF088
:101DA400B4E67396AC7422E7AD3585E2F937E81CE6
:101DB40075DF6E47F11A711D29C5896FB7620EAAC6
:101DC40018BE1BFC563E4BC6D279209ADBC0FE7867
:101DD400CD5AF41FDDA8338807C731B11210592733
:101DE40080EC5F60517FA919B54A0D2DE57A9F9368
:101DF400C99CEFA0E03B4DAE2AF5B0C8EBBB3C83D9
:101E0400539961172B047EBA77D626E1691463557A
:0E1E1400210C7D8D01020408102040801B3639
:00000001FF
